{
  "contractName": "CryptoArt",
  "abi": [
    {
      "constant": true,
      "inputs": [],
      "name": "name",
      "outputs": [
        {
          "name": "",
          "type": "string"
        }
      ],
      "payable": false,
      "stateMutability": "view",
      "type": "function"
    },
    {
      "constant": false,
      "inputs": [
        {
          "name": "artIndex",
          "type": "uint256"
        }
      ],
      "name": "artNoLongerForSale",
      "outputs": [],
      "payable": false,
      "stateMutability": "nonpayable",
      "type": "function"
    },
    {
      "constant": true,
      "inputs": [],
      "name": "totalSupply",
      "outputs": [
        {
          "name": "",
          "type": "uint256"
        }
      ],
      "payable": false,
      "stateMutability": "view",
      "type": "function"
    },
    {
      "constant": false,
      "inputs": [
        {
          "name": "artIndex",
          "type": "uint256"
        }
      ],
      "name": "withdrawBidForArt",
      "outputs": [],
      "payable": false,
      "stateMutability": "nonpayable",
      "type": "function"
    },
    {
      "constant": true,
      "inputs": [
        {
          "name": "",
          "type": "uint256"
        },
        {
          "name": "hashes",
          "type": "uint256[]"
        }
      ],
      "name": "artOfferedForSale",
      "outputs": [
        {
          "name": "isForSale",
          "type": "bool"
        },
        {
          "name": "artIndex",
          "type": "uint256"
        },
        {
          "name": "seller",
          "type": "address"
        },
        {
          "name": "minValue",
          "type": "uint256"
        },
        {
          "name": "onlySellTo",
          "type": "address"
        }
      ],
      "payable": false,
      "stateMutability": "view",
      "type": "function"
    },
    {
      "constant": true,
      "inputs": [
        {
          "name": "hashOfArt",
          "type": "uint256"
        }
      ],
      "name": "decimals",
      "outputs": [
        {
          "name": "",
          "type": "uint8"
        },
        {
          "name": "artIndex",
          "type": "uint256"
        },
        {
          "name": "seller",
          "type": "address"
        },
        {
          "name": "minValue",
          "type": "uint256"
        },
        {
          "name": "onlySellTo",
          "type": "address"
        }
      ],
      "payable": false,
      "stateMutability": "view",
      "type": "function"
    },
    {
      "constant": false,
      "inputs": [],
      "name": "withdraw",
      "outputs": [
        {
          "name": "",
          "type": "uint8"
        }
      ],
      "payable": false,
      "stateMutability": "nonpayable",
      "type": "function"
    },
    {
      "constant": false,
      "inputs": [
        {
          "name": "artIndex",
          "type": "uint256"
        },
        {
          "name": "minSalePriceInWei",
          "type": "uint256"
        },
        {
          "name": "toAddress",
          "type": "address"
        }
      ],
      "name": "offerArtForSaleToAddress",
      "outputs": [],
      "payable": false,
      "stateMutability": "nonpayable",
      "type": "function"
    },
    {
      "constant": true,
      "inputs": [
        {
          "name": "artIndex",
          "type": "uint256"
        },
        {
          "name": "minSalePriceInWei",
          "type": "uint256"
        },
        {
          "name": "toAddress",
          "type": "address"
        }
      ],
      "name": "standard",
      "outputs": [
        {
          "name": "",
          "type": "string"
        }
      ],
      "payable": false,
      "stateMutability": "view",
      "type": "function"
    },
    {
      "constant": false,
      "inputs": [
        {
          "name": "to",
          "type": "address"
        },
        {
          "name": "hashOfArt",
          "type": "string"
        }
      ],
      "name": "cryptoArtRelease",
      "outputs": [
        {
          "name": "",
          "type": "uint256"
        }
      ],
      "payable": false,
      "stateMutability": "nonpayable",
      "type": "function"
    },
    {
      "constant": true,
      "inputs": [
        {
          "name": "",
          "type": "address"
        },
        {
          "name": "hashOfArt",
          "type": "uint256"
        }
      ],
      "name": "balanceOf",
      "outputs": [
        {
          "name": "",
          "type": "uint256"
        }
      ],
      "payable": false,
      "stateMutability": "view",
      "type": "function"
    },
    {
      "constant": false,
      "inputs": [
        {
          "name": "artIndex",
          "type": "uint256"
        }
      ],
      "name": "enterBidforArt",
      "outputs": [
        {
          "name": "",
          "type": "uint256"
        }
      ],
      "payable": true,
      "stateMutability": "payable",
      "type": "function"
    },
    {
      "constant": true,
      "inputs": [
        {
          "name": "artIndex",
          "type": "uint256"
        }
      ],
      "name": "nextArtIndexToAssign",
      "outputs": [
        {
          "name": "",
          "type": "uint256"
        }
      ],
      "payable": false,
      "stateMutability": "view",
      "type": "function"
    },
    {
      "constant": true,
      "inputs": [
        {
          "name": "artIndex",
          "type": "uint256"
        },
        {
          "name": "minSalePriceInWei",
          "type": "uint256"
        }
      ],
      "name": "owner",
      "outputs": [
        {
          "name": "",
          "type": "address"
        }
      ],
      "payable": false,
      "stateMutability": "view",
      "type": "function"
    },
    {
      "constant": false,
      "inputs": [
        {
          "name": "artIndex",
          "type": "uint256"
        },
        {
          "name": "minSalePriceInWei",
          "type": "uint256"
        }
      ],
      "name": "offerArtForSale",
      "outputs": [
        {
          "name": "",
          "type": "string"
        }
      ],
      "payable": false,
      "stateMutability": "nonpayable",
      "type": "function"
    },
    {
      "constant": true,
      "inputs": [
        {
          "name": "",
          "type": "uint256"
        },
        {
          "name": "minSalePriceInWei",
          "type": "uint256"
        }
      ],
      "name": "symbol",
      "outputs": [
        {
          "name": "",
          "type": "string"
        },
        {
          "name": "artIndex",
          "type": "uint256"
        },
        {
          "name": "bidder",
          "type": "address"
        },
        {
          "name": "value",
          "type": "uint256"
        }
      ],
      "payable": false,
      "stateMutability": "view",
      "type": "function"
    },
    {
      "constant": true,
      "inputs": [
        {
          "name": "",
          "type": "uint256"
        },
        {
          "name": "minPrice",
          "type": "uint256"
        }
      ],
      "name": "artBids",
      "outputs": [
        {
          "name": "hasBid",
          "type": "bool"
        },
        {
          "name": "artIndex",
          "type": "uint256"
        },
        {
          "name": "bidder",
          "type": "address"
        },
        {
          "name": "value",
          "type": "uint256"
        }
      ],
      "payable": false,
      "stateMutability": "view",
      "type": "function"
    },
    {
      "constant": false,
      "inputs": [
        {
          "name": "artIndex",
          "type": "uint256"
        },
        {
          "name": "minPrice",
          "type": "uint256"
        }
      ],
      "name": "acceptBidForArt",
      "outputs": [
        {
          "name": "hasBid",
          "type": "bool"
        },
        {
          "name": "artIndex",
          "type": "uint256"
        },
        {
          "name": "bidder",
          "type": "address"
        },
        {
          "name": "value",
          "type": "uint256"
        }
      ],
      "payable": false,
      "stateMutability": "nonpayable",
      "type": "function"
    },
    {
      "constant": false,
      "inputs": [
        {
          "name": "to",
          "type": "address"
        },
        {
          "name": "artIndex",
          "type": "uint256"
        }
      ],
      "name": "transferArt",
      "outputs": [],
      "payable": false,
      "stateMutability": "nonpayable",
      "type": "function"
    },
    {
      "constant": false,
      "inputs": [
        {
          "name": "newOwner",
          "type": "address"
        },
        {
          "name": "artIndex",
          "type": "uint256"
        }
      ],
      "name": "transferOwnership",
      "outputs": [],
      "payable": false,
      "stateMutability": "nonpayable",
      "type": "function"
    },
    {
      "constant": true,
      "inputs": [
        {
          "name": "",
          "type": "address"
        }
      ],
      "name": "pendingWithdrawals",
      "outputs": [
        {
          "name": "",
          "type": "uint256"
        }
      ],
      "payable": false,
      "stateMutability": "view",
      "type": "function"
    },
    {
      "constant": true,
      "inputs": [
        {
          "name": "",
          "type": "uint256"
        }
      ],
      "name": "artIndexToAddress",
      "outputs": [
        {
          "name": "",
          "type": "address"
        }
      ],
      "payable": false,
      "stateMutability": "view",
      "type": "function"
    },
    {
      "constant": false,
      "inputs": [
        {
          "name": "artIndex",
          "type": "uint256"
        }
      ],
      "name": "buyArt",
      "outputs": [
        {
          "name": "",
          "type": "address"
        }
      ],
      "payable": true,
      "stateMutability": "payable",
      "type": "function"
    },
    {
      "constant": false,
      "inputs": [
        {
          "name": "artIndex",
          "type": "uint256"
        }
      ],
      "name": "buyArt",
      "outputs": [],
      "payable": true,
      "stateMutability": "payable",
      "type": "constructor"
    },
    {
      "inputs": [
        {
          "indexed": true,
          "name": "from",
          "type": "address"
        },
        {
          "indexed": true,
          "name": "to",
          "type": "address"
        },
        {
          "indexed": true,
          "name": "artIndex",
          "type": "uint256"
        }
      ],
      "payable": true,
      "stateMutability": "payable",
      "type": "event",
      "anonymous": false,
      "name": "Transfer"
    },
    {
      "anonymous": false,
      "inputs": [
        {
          "indexed": true,
          "name": "from",
          "type": "address"
        },
        {
          "indexed": true,
          "name": "to",
          "type": "address"
        },
        {
          "indexed": true,
          "name": "artIndex",
          "type": "uint256"
        }
      ],
      "name": "ArtTransfer",
      "type": "event"
    },
    {
      "anonymous": false,
      "inputs": [
        {
          "indexed": true,
          "name": "artIndex",
          "type": "uint256"
        },
        {
          "indexed": true,
          "name": "minValue",
          "type": "uint256"
        },
        {
          "indexed": true,
          "name": "toAddress",
          "type": "address"
        }
      ],
      "name": "ArtOffered",
      "type": "event"
    },
    {
      "anonymous": false,
      "inputs": [
        {
          "indexed": true,
          "name": "artIndex",
          "type": "uint256"
        },
        {
          "indexed": true,
          "name": "value",
          "type": "uint256"
        },
        {
          "indexed": true,
          "name": "fromAddress",
          "type": "address"
        }
      ],
      "name": "ArtBidEntered",
      "type": "event"
    },
    {
      "anonymous": false,
      "inputs": [
        {
          "indexed": true,
          "name": "artIndex",
          "type": "uint256"
        },
        {
          "indexed": false,
          "name": "value",
          "type": "uint256"
        },
        {
          "indexed": true,
          "name": "fromAddress",
          "type": "address"
        }
      ],
      "name": "ArtBidWithdrawn",
      "type": "event"
    },
    {
      "anonymous": false,
      "inputs": [
        {
          "indexed": true,
          "name": "artIndex",
          "type": "uint256"
        },
        {
          "indexed": false,
          "name": "value",
          "type": "uint256"
        },
        {
          "indexed": true,
          "name": "fromAddress",
          "type": "address"
        },
        {
          "indexed": true,
          "name": "toAddress",
          "type": "address"
        }
      ],
      "name": "ArtBought",
      "type": "event"
    },
    {
      "anonymous": false,
      "inputs": [
        {
          "indexed": true,
          "name": "artIndex",
          "type": "uint256"
        },
        {
          "indexed": false,
          "name": "value",
          "type": "uint256"
        },
        {
          "indexed": true,
          "name": "fromAddress",
          "type": "address"
        }
      ],
      "name": "ArtNoLongerForSale",
      "type": "event"
    },
    {
      "anonymous": false,
      "inputs": [
        {
          "indexed": true,
          "name": "artIndex",
          "type": "uint256"
        },
        {
          "indexed": true,
          "name": "to",
          "type": "address"
        },
        {
          "indexed": true,
          "name": "hashOfArt",
          "type": "string"
        },
        {
          "indexed": true,
          "name": "toAddress",
          "type": "address"
        }
      ],
      "name": "ArtCreation",
      "type": "event"
    },
    {
      "anonymous": false,
      "inputs": [
        {
          "indexed": true,
          "name": "artIndex",
          "type": "uint256"
        }
      ],
      "name": "ArtNoLongerForSale",
      "type": "event"
    },
    {
      "anonymous": false,
      "inputs": [
        {
          "indexed": false,
          "name": "artIndex",
          "type": "uint256"
        },
        {
          "indexed": true,
          "name": "hashOfArt",
          "type": "uint256"
        }
      ],
      "name": "ArtCreation",
      "type": "event"
    }
  ],
  "bytecode": "0x60606040526040805190810160405280600981526020017f43727970746f417274000000000000000000000000000000000000000000000081525060029080519060200190620000519291906200014c565b5060006007556000806000336000806101000a81548173ffffffffffffffffffffffffffffffffffffffff021916908373ffffffffffffffffffffffffffffffffffffffff160217905550339250600091506040805190810160405280600981526020017f43525950544f415254000000000000000000000000000000000000000000000081525060039080519060200190620000f09291906200014c565b506040805190810160405280600481526020017f4341525400000000000000000000000000000000000000000000000000000000815250600490805190602001906200013e9291906200014c565b5060019050505050620001fb565b828054600181600116156101000203166002900490600052602060002090601f016020900481019282601f106200018f57805160ff1916838001178555620001c0565b82800160010185558215620001c0579182015b82811115620001bf578251825591602001919060010190620001a2565b5b509050620001cf9190620001d3565b5090565b620001f891905b80821115620001f4576000816000905550600101620001da565b5090565b90565b6127e2806200020b6000396000f300606060405260043610610133576000357c0100000000000000000000000000000000000000000000000000000000900463ffffffff16806306fdde03146101385780630c19c4d1146101c657806318160ddd146101e95780631c7529781461021257806328908a7f14610235578063313ce567146102e45780633ccfd60b14610313578063449d788b146103285780635a3b7e42146103735780636c89611f1461040157806370a082311461047d5780637f7a1f07146104ca578063888c23fd146104e25780638da5cb5b1461050b5780638e84acea1461056057806395d89b411461058c5780639bc130291461061a578063a7d9460b14610696578063e2a037b4146106c2578063f2fde38b14610704578063f3f437031461073d578063f7e4ccc31461078a578063fc7a900b146107ed575b600080fd5b341561014357600080fd5b61014b610805565b6040518080602001828103825283818151815260200191508051906020019080838360005b8381101561018b578082015181840152602081019050610170565b50505050905090810190601f1680156101b85780820380516001836020036101000a031916815260200191505b509250505060405180910390f35b34156101d157600080fd5b6101e760048080359060200190919050506108a3565b005b34156101f457600080fd5b6101fc610a81565b6040518082815260200191505060405180910390f35b341561021d57600080fd5b6102336004808035906020019091905050610a87565b005b341561024057600080fd5b6102566004808035906020019091905050610cd1565b60405180861515151581526020018581526020018473ffffffffffffffffffffffffffffffffffffffff1673ffffffffffffffffffffffffffffffffffffffff1681526020018381526020018273ffffffffffffffffffffffffffffffffffffffff1673ffffffffffffffffffffffffffffffffffffffff1681526020019550505050505060405180910390f35b34156102ef57600080fd5b6102f7610d54565b604051808260ff1660ff16815260200191505060405180910390f35b341561031e57600080fd5b610326610d67565b005b341561033357600080fd5b610371600480803590602001909190803590602001909190803573ffffffffffffffffffffffffffffffffffffffff16906020019091905050610e33565b005b341561037e57600080fd5b610386611029565b6040518080602001828103825283818151815260200191508051906020019080838360005b838110156103c65780820151818401526020810190506103ab565b50505050905090810190601f1680156103f35780820380516001836020036101000a031916815260200191505b509250505060405180910390f35b341561040c57600080fd5b61047b600480803573ffffffffffffffffffffffffffffffffffffffff1690602001909190803590602001908201803590602001908080601f016020809104026020016040519081016040528093929190818152602001838380828437820191505050505050919050506110c7565b005b341561048857600080fd5b6104b4600480803573ffffffffffffffffffffffffffffffffffffffff16906020019091905050611229565b6040518082815260200191505060405180910390f35b6104e06004808035906020019091905050611241565b005b34156104ed57600080fd5b6104f56114e3565b6040518082815260200191505060405180910390f35b341561051657600080fd5b61051e6114e9565b604051808273ffffffffffffffffffffffffffffffffffffffff1673ffffffffffffffffffffffffffffffffffffffff16815260200191505060405180910390f35b341561056b57600080fd5b61058a600480803590602001909190803590602001909190505061150e565b005b341561059757600080fd5b61059f6116ef565b6040518080602001828103825283818151815260200191508051906020019080838360005b838110156105df5780820151818401526020810190506105c4565b50505050905090810190601f16801561060c5780820380516001836020036101000a031916815260200191505b509250505060405180910390f35b341561062557600080fd5b61063b600480803590602001909190505061178d565b60405180851515151581526020018481526020018373ffffffffffffffffffffffffffffffffffffffff1673ffffffffffffffffffffffffffffffffffffffff16815260200182815260200194505050505060405180910390f35b34156106a157600080fd5b6106c060048080359060200190919080359060200190919050506117ea565b005b34156106cd57600080fd5b610702600480803573ffffffffffffffffffffffffffffffffffffffff16906020019091908035906020019091905050611d6c565b005b341561070f57600080fd5b61073b600480803573ffffffffffffffffffffffffffffffffffffffff1690602001909190505061217c565b005b341561074857600080fd5b610774600480803573ffffffffffffffffffffffffffffffffffffffff1690602001909190505061221a565b6040518082815260200191505060405180910390f35b341561079557600080fd5b6107ab6004808035906020019091905050612232565b604051808273ffffffffffffffffffffffffffffffffffffffff1673ffffffffffffffffffffffffffffffffffffffff16815260200191505060405180910390f35b6108036004808035906020019091905050612265565b005b60038054600181600116156101000203166002900480601f01602080910402602001604051908101604052809291908181526020018280546001816001161561010002031660029004801561089b5780601f106108705761010080835404028352916020019161089b565b820191906000526020600020905b81548152906001019060200180831161087e57829003601f168201915b505050505081565b3373ffffffffffffffffffffffffffffffffffffffff166008600083815260200190815260200160002060009054906101000a900473ffffffffffffffffffffffffffffffffffffffff1673ffffffffffffffffffffffffffffffffffffffff1614151561091057600080fd5b6007548110151561092057600080fd5b60a0604051908101604052806000151581526020018281526020013373ffffffffffffffffffffffffffffffffffffffff16815260200160008152602001600073ffffffffffffffffffffffffffffffffffffffff16815250600a600083815260200190815260200160002060008201518160000160006101000a81548160ff0219169083151502179055506020820151816001015560408201518160020160006101000a81548173ffffffffffffffffffffffffffffffffffffffff021916908373ffffffffffffffffffffffffffffffffffffffff1602179055506060820151816003015560808201518160040160006101000a81548173ffffffffffffffffffffffffffffffffffffffff021916908373ffffffffffffffffffffffffffffffffffffffff160217905550905050807f9ecc676508f699be6f3a22d5ee5920e79ea741cf3a03b4ac5c3cabad976031a160405160405180910390a250565b60065481565b60008060075483101515610a9a57600080fd5b60006008600085815260200190815260200160002060009054906101000a900473ffffffffffffffffffffffffffffffffffffffff1673ffffffffffffffffffffffffffffffffffffffff161415610af157600080fd5b600b600084815260200190815260200160002091503373ffffffffffffffffffffffffffffffffffffffff168260020160009054906101000a900473ffffffffffffffffffffffffffffffffffffffff1673ffffffffffffffffffffffffffffffffffffffff16141515610b6457600080fd5b3373ffffffffffffffffffffffffffffffffffffffff16837f36fb11f67dfe2f757364c4d4bc9c981d588678db0d52557f75b7d9122cc72ff284600301546040518082815260200191505060405180910390a381600301549050608060405190810160405280600015158152602001848152602001600073ffffffffffffffffffffffffffffffffffffffff1681526020016000815250600b600085815260200190815260200160002060008201518160000160006101000a81548160ff0219169083151502179055506020820151816001015560408201518160020160006101000a81548173ffffffffffffffffffffffffffffffffffffffff021916908373ffffffffffffffffffffffffffffffffffffffff160217905550606082015181600301559050503373ffffffffffffffffffffffffffffffffffffffff166108fc829081150290604051600060405180830381858888f193505050501515610ccc57600080fd5b505050565b600a6020528060005260406000206000915090508060000160009054906101000a900460ff16908060010154908060020160009054906101000a900473ffffffffffffffffffffffffffffffffffffffff16908060030154908060040160009054906101000a900473ffffffffffffffffffffffffffffffffffffffff16905085565b600560009054906101000a900460ff1681565b6000600c60003373ffffffffffffffffffffffffffffffffffffffff1673ffffffffffffffffffffffffffffffffffffffff1681526020019081526020016000205490506000600c60003373ffffffffffffffffffffffffffffffffffffffff1673ffffffffffffffffffffffffffffffffffffffff168152602001908152602001600020819055503373ffffffffffffffffffffffffffffffffffffffff166108fc829081150290604051600060405180830381858888f193505050501515610e3057600080fd5b50565b3373ffffffffffffffffffffffffffffffffffffffff166008600085815260200190815260200160002060009054906101000a900473ffffffffffffffffffffffffffffffffffffffff1673ffffffffffffffffffffffffffffffffffffffff16141515610ea057600080fd5b60075483101515610eb057600080fd5b60a0604051908101604052806001151581526020018481526020013373ffffffffffffffffffffffffffffffffffffffff1681526020018381526020018273ffffffffffffffffffffffffffffffffffffffff16815250600a600085815260200190815260200160002060008201518160000160006101000a81548160ff0219169083151502179055506020820151816001015560408201518160020160006101000a81548173ffffffffffffffffffffffffffffffffffffffff021916908373ffffffffffffffffffffffffffffffffffffffff1602179055506060820151816003015560808201518160040160006101000a81548173ffffffffffffffffffffffffffffffffffffffff021916908373ffffffffffffffffffffffffffffffffffffffff1602179055509050508073ffffffffffffffffffffffffffffffffffffffff1682847f7ecf07349061dc495612426854440df7465cd3fab5265fcba3c894fb5c77ce4860405160405180910390a4505050565b60028054600181600116156101000203166002900480601f0160208091040260200160405190810160405280929190818152602001828054600181600116156101000203166002900480156110bf5780601f10611094576101008083540402835291602001916110bf565b820191906000526020600020905b8154815290600101906020018083116110a257829003601f168201915b505050505081565b8160086000600754815260200190815260200160002060006101000a81548173ffffffffffffffffffffffffffffffffffffffff021916908373ffffffffffffffffffffffffffffffffffffffff160217905550600960008373ffffffffffffffffffffffffffffffffffffffff1673ffffffffffffffffffffffffffffffffffffffff16815260200190815260200160002060008154809291906001019190505550806040518082805190602001908083835b6020831015156111a0578051825260208201915060208101905060208303925061117b565b6001836020036101000a03801982511681845116808217855250505050505090500191505060405180910390208273ffffffffffffffffffffffffffffffffffffffff166007547f30e2a4a78159986768dd7bbcbb86af168e38f8ea9429066bd7f956b0a9d5989860405160405180910390a46007600081548092919060010191905055505050565b60096020528060005260406000206000915090505481565b60006007548210151561125357600080fd5b60006008600084815260200190815260200160002060009054906101000a900473ffffffffffffffffffffffffffffffffffffffff1673ffffffffffffffffffffffffffffffffffffffff1614156112aa57600080fd5b3373ffffffffffffffffffffffffffffffffffffffff166008600084815260200190815260200160002060009054906101000a900473ffffffffffffffffffffffffffffffffffffffff1673ffffffffffffffffffffffffffffffffffffffff16141561131657600080fd5b600034141561132457600080fd5b600b6000838152602001908152602001600020905034816003015410151561134b57600080fd5b6000816003015411156113ce578060030154600c60008360020160009054906101000a900473ffffffffffffffffffffffffffffffffffffffff1673ffffffffffffffffffffffffffffffffffffffff1673ffffffffffffffffffffffffffffffffffffffff168152602001908152602001600020600082825401925050819055505b6080604051908101604052806001151581526020018381526020013373ffffffffffffffffffffffffffffffffffffffff16815260200134815250600b600084815260200190815260200160002060008201518160000160006101000a81548160ff0219169083151502179055506020820151816001015560408201518160020160006101000a81548173ffffffffffffffffffffffffffffffffffffffff021916908373ffffffffffffffffffffffffffffffffffffffff160217905550606082015181600301559050503373ffffffffffffffffffffffffffffffffffffffff1634837fb0a971ae368c8a05ba4a1d5cad839141121a2b667c1ffc116c453891ea18ed7860405160405180910390a45050565b60075481565b6000809054906101000a900473ffffffffffffffffffffffffffffffffffffffff1681565b3373ffffffffffffffffffffffffffffffffffffffff166008600084815260200190815260200160002060009054906101000a900473ffffffffffffffffffffffffffffffffffffffff1673ffffffffffffffffffffffffffffffffffffffff1614151561157b57600080fd5b6007548210151561158b57600080fd5b60a0604051908101604052806001151581526020018381526020013373ffffffffffffffffffffffffffffffffffffffff168152602001828152602001600073ffffffffffffffffffffffffffffffffffffffff16815250600a600084815260200190815260200160002060008201518160000160006101000a81548160ff0219169083151502179055506020820151816001015560408201518160020160006101000a81548173ffffffffffffffffffffffffffffffffffffffff021916908373ffffffffffffffffffffffffffffffffffffffff1602179055506060820151816003015560808201518160040160006101000a81548173ffffffffffffffffffffffffffffffffffffffff021916908373ffffffffffffffffffffffffffffffffffffffff160217905550905050600081837f7ecf07349061dc495612426854440df7465cd3fab5265fcba3c894fb5c77ce4860405160405180910390a45050565b60048054600181600116156101000203166002900480601f0160208091040260200160405190810160405280929190818152602001828054600181600116156101000203166002900480156117855780601f1061175a57610100808354040283529160200191611785565b820191906000526020600020905b81548152906001019060200180831161176857829003601f168201915b505050505081565b600b6020528060005260406000206000915090508060000160009054906101000a900460ff16908060010154908060020160009054906101000a900473ffffffffffffffffffffffffffffffffffffffff16908060030154905084565b6000806000600754851015156117ff57600080fd5b3373ffffffffffffffffffffffffffffffffffffffff166008600087815260200190815260200160002060009054906101000a900473ffffffffffffffffffffffffffffffffffffffff1673ffffffffffffffffffffffffffffffffffffffff1614151561186c57600080fd5b339250600b6000868152602001908152602001600020915060008260030154141561189657600080fd5b83826003015410156118a757600080fd5b8160020160009054906101000a900473ffffffffffffffffffffffffffffffffffffffff166008600087815260200190815260200160002060006101000a81548173ffffffffffffffffffffffffffffffffffffffff021916908373ffffffffffffffffffffffffffffffffffffffff160217905550600960008473ffffffffffffffffffffffffffffffffffffffff1673ffffffffffffffffffffffffffffffffffffffff1681526020019081526020016000206000815480929190600190039190505550600960008360020160009054906101000a900473ffffffffffffffffffffffffffffffffffffffff1673ffffffffffffffffffffffffffffffffffffffff1673ffffffffffffffffffffffffffffffffffffffff1681526020019081526020016000206000815480929190600101919050555060018260020160009054906101000a900473ffffffffffffffffffffffffffffffffffffffff1673ffffffffffffffffffffffffffffffffffffffff168473ffffffffffffffffffffffffffffffffffffffff167fddf252ad1be2c89b69c2b068fc378daa952ba7f163c4a11628f55a4df523b3ef60405160405180910390a460a0604051908101604052806000151581526020018681526020018360020160009054906101000a900473ffffffffffffffffffffffffffffffffffffffff1673ffffffffffffffffffffffffffffffffffffffff16815260200160008152602001600073ffffffffffffffffffffffffffffffffffffffff16815250600a600087815260200190815260200160002060008201518160000160006101000a81548160ff0219169083151502179055506020820151816001015560408201518160020160006101000a81548173ffffffffffffffffffffffffffffffffffffffff021916908373ffffffffffffffffffffffffffffffffffffffff1602179055506060820151816003015560808201518160040160006101000a81548173ffffffffffffffffffffffffffffffffffffffff021916908373ffffffffffffffffffffffffffffffffffffffff16021790555090505081600301549050608060405190810160405280600015158152602001868152602001600073ffffffffffffffffffffffffffffffffffffffff1681526020016000815250600b600087815260200190815260200160002060008201518160000160006101000a81548160ff0219169083151502179055506020820151816001015560408201518160020160006101000a81548173ffffffffffffffffffffffffffffffffffffffff021916908373ffffffffffffffffffffffffffffffffffffffff1602179055506060820151816003015590505080600c60008573ffffffffffffffffffffffffffffffffffffffff1673ffffffffffffffffffffffffffffffffffffffff168152602001908152602001600020600082825401925050819055508160020160009054906101000a900473ffffffffffffffffffffffffffffffffffffffff1673ffffffffffffffffffffffffffffffffffffffff168373ffffffffffffffffffffffffffffffffffffffff16867f0d54da05a2c4e87502f1670359978e2a0c872c64e9de22f8f706ac323a06a8ac85600301546040518082815260200191505060405180910390a45050505050565b60003373ffffffffffffffffffffffffffffffffffffffff166008600084815260200190815260200160002060009054906101000a900473ffffffffffffffffffffffffffffffffffffffff1673ffffffffffffffffffffffffffffffffffffffff16141515611ddb57600080fd5b60075482101515611deb57600080fd5b600a600083815260200190815260200160002060000160009054906101000a900460ff1615611e4257817f9ecc676508f699be6f3a22d5ee5920e79ea741cf3a03b4ac5c3cabad976031a160405160405180910390a25b826008600084815260200190815260200160002060006101000a81548173ffffffffffffffffffffffffffffffffffffffff021916908373ffffffffffffffffffffffffffffffffffffffff160217905550600960003373ffffffffffffffffffffffffffffffffffffffff1673ffffffffffffffffffffffffffffffffffffffff1681526020019081526020016000206000815480929190600190039190505550600960008473ffffffffffffffffffffffffffffffffffffffff1673ffffffffffffffffffffffffffffffffffffffff1681526020019081526020016000206000815480929190600101919050555060018373ffffffffffffffffffffffffffffffffffffffff163373ffffffffffffffffffffffffffffffffffffffff167fddf252ad1be2c89b69c2b068fc378daa952ba7f163c4a11628f55a4df523b3ef60405160405180910390a4818373ffffffffffffffffffffffffffffffffffffffff163373ffffffffffffffffffffffffffffffffffffffff167f69e806c6e9d730a2eac5c787396f771c8decf95682bcaf799e43c436f01c520860405160405180910390a4600b600083815260200190815260200160002090508273ffffffffffffffffffffffffffffffffffffffff168160020160009054906101000a900473ffffffffffffffffffffffffffffffffffffffff1673ffffffffffffffffffffffffffffffffffffffff161415612177578060030154600c60008573ffffffffffffffffffffffffffffffffffffffff1673ffffffffffffffffffffffffffffffffffffffff16815260200190815260200160002060008282540192505081905550608060405190810160405280600015158152602001838152602001600073ffffffffffffffffffffffffffffffffffffffff1681526020016000815250600b600084815260200190815260200160002060008201518160000160006101000a81548160ff0219169083151502179055506020820151816001015560408201518160020160006101000a81548173ffffffffffffffffffffffffffffffffffffffff021916908373ffffffffffffffffffffffffffffffffffffffff160217905550606082015181600301559050505b505050565b6000809054906101000a900473ffffffffffffffffffffffffffffffffffffffff1673ffffffffffffffffffffffffffffffffffffffff163373ffffffffffffffffffffffffffffffffffffffff161415156121d757600080fd5b806000806101000a81548173ffffffffffffffffffffffffffffffffffffffff021916908373ffffffffffffffffffffffffffffffffffffffff16021790555050565b600c6020528060005260406000206000915090505481565b60086020528060005260406000206000915054906101000a900473ffffffffffffffffffffffffffffffffffffffff1681565b6000806000600a600085815260200190815260200160002092506007548410151561228f57600080fd5b8260000160009054906101000a900460ff1615156122ac57600080fd5b60008360040160009054906101000a900473ffffffffffffffffffffffffffffffffffffffff1673ffffffffffffffffffffffffffffffffffffffff161415801561234757503373ffffffffffffffffffffffffffffffffffffffff168360040160009054906101000a900473ffffffffffffffffffffffffffffffffffffffff1673ffffffffffffffffffffffffffffffffffffffff1614155b1561235157600080fd5b826003015434101561236257600080fd5b6008600085815260200190815260200160002060009054906101000a900473ffffffffffffffffffffffffffffffffffffffff1673ffffffffffffffffffffffffffffffffffffffff168360020160009054906101000a900473ffffffffffffffffffffffffffffffffffffffff1673ffffffffffffffffffffffffffffffffffffffff161415156123f357600080fd5b8260020160009054906101000a900473ffffffffffffffffffffffffffffffffffffffff169150336008600086815260200190815260200160002060006101000a81548173ffffffffffffffffffffffffffffffffffffffff021916908373ffffffffffffffffffffffffffffffffffffffff160217905550600960008373ffffffffffffffffffffffffffffffffffffffff1673ffffffffffffffffffffffffffffffffffffffff1681526020019081526020016000206000815480929190600190039190505550600960003373ffffffffffffffffffffffffffffffffffffffff1673ffffffffffffffffffffffffffffffffffffffff1681526020019081526020016000206000815480929190600101919050555060013373ffffffffffffffffffffffffffffffffffffffff168373ffffffffffffffffffffffffffffffffffffffff167fddf252ad1be2c89b69c2b068fc378daa952ba7f163c4a11628f55a4df523b3ef60405160405180910390a4612570846108a3565b34600c60008473ffffffffffffffffffffffffffffffffffffffff1673ffffffffffffffffffffffffffffffffffffffff168152602001908152602001600020600082825401925050819055503373ffffffffffffffffffffffffffffffffffffffff168273ffffffffffffffffffffffffffffffffffffffff16857f0d54da05a2c4e87502f1670359978e2a0c872c64e9de22f8f706ac323a06a8ac346040518082815260200191505060405180910390a4600b600085815260200190815260200160002090503373ffffffffffffffffffffffffffffffffffffffff168160020160009054906101000a900473ffffffffffffffffffffffffffffffffffffffff1673ffffffffffffffffffffffffffffffffffffffff1614156127b0578060030154600c60003373ffffffffffffffffffffffffffffffffffffffff1673ffffffffffffffffffffffffffffffffffffffff16815260200190815260200160002060008282540192505081905550608060405190810160405280600015158152602001858152602001600073ffffffffffffffffffffffffffffffffffffffff1681526020016000815250600b600086815260200190815260200160002060008201518160000160006101000a81548160ff0219169083151502179055506020820151816001015560408201518160020160006101000a81548173ffffffffffffffffffffffffffffffffffffffff021916908373ffffffffffffffffffffffffffffffffffffffff160217905550606082015181600301559050505b505050505600a165627a7a72305820e1c1e71068813b449734693c4debb7fa46c44113dde771e997b2d69f131520d60029",
  "source": "pragma solidity ^0.4.8;\n\ncontract owned {\n    address public owner;\n\n    function owned() {\n        owner = msg.sender;\n    }\n\n    modifier onlyOwner {\n        require(msg.sender == owner);\n        _;\n    }\n\n    function transferOwnership(address newOwner) onlyOwner {\n        owner = newOwner;\n    }\n}\n\ncontract CryptoArt is owned {\n\n    // Test Hash Here\n    // string public imageHash = \"HASH\";\n\n    address Owner;\n\n    string public standard = 'CryptoArt';\n    string public name;\n    string public symbol;\n    uint8 public decimals;\n    uint256 public totalSupply;\n\n    // As each art is created, it is assigned an index\n    uint public nextArtIndexToAssign = 0;\n\n    // The big mapping between an artIndexNumber and someones ethereum address\n    mapping (uint => address) public artIndexToAddress;\n\n    /* This creates an array with all balances */\n    mapping (address => uint256) public balanceOf;\n\n    // This is where each artwork is defined as female or male\n    // mapping (uint => bool) public artIndexToGender;\n\n    struct Offer {\n      bool isForSale;\n      uint artIndex;\n      address seller;\n      uint minValue;    // in ether\n      address onlySellTo;   // specify to sell only to a specific person\n    }\n\n    struct Bid {\n      bool hasBid;\n      uint artIndex;\n      address bidder;\n      uint value;\n    }\n\n    // A record of CART that are offered for sale at a specific minimum value, and perhaps to a specific person\n    mapping (uint => Offer) public artOfferedForSale;\n\n    // A record of the highest art bid\n    mapping (uint => Bid) public artBids;\n\n    mapping (address => uint) public pendingWithdrawals;\n\n    // These are events, events are logged in the blockchain for the world to see.\n    // The \"indexed\" keyword identifies which parameters to remain searchable later\n    //event Assign(address indexed to, uint256 indexed artIndex);\n    event Transfer(address indexed from, address indexed to, uint256 indexed artIndex);\n    event ArtTransfer(address indexed from, address indexed to, uint256 indexed artIndex);\n    event ArtOffered(uint indexed artIndex, uint indexed minValue, address indexed toAddress);\n    event ArtBidEntered(uint indexed artIndex, uint indexed value, address indexed fromAddress);\n    event ArtBidWithdrawn(uint indexed artIndex, uint value, address indexed fromAddress);\n    event ArtBought(uint indexed artIndex, uint value, address indexed fromAddress, address indexed toAddress);\n    event ArtNoLongerForSale(uint indexed artIndex);\n    event ArtCreation(uint256 indexed artIndex, address indexed to, string indexed hashOfArt);\n\n    /* Initialized contract with initial supply token to the creator of the contract */\n    // The payable keyword here defines that this contract can accept ether, otherwise it will be rejected\n    function CryptoArt() payable {\n      address owner = msg.sender;\n      uint256 totalSupply = 0; // Change to the creation of numerous sub coins when a new release of art is conducted\n      name = \"CRYPTOART\";   // Sets the name for display purposes\n      symbol = \"CART\";\n      uint decimals=1;  // No decimals for artwork\n\n    }\n\n    function cryptoArtRelease(address to,string hashOfArt) { // Able to accept vector? //Basic minting // Called once for every new artwork\n      //if (msg.sender != owner) throw; // May need to remove this.\n\n      artIndexToAddress[nextArtIndexToAssign] = to;\n      balanceOf[to]++;\n\n      //Assign(msg.sender, nextArtIndexToAssign);\n      ArtCreation(nextArtIndexToAssign, to, hashOfArt);\n      nextArtIndexToAssign++;\n\n      // Need to check if the hash already exists by checking ArtCreation Event log\n    }\n\n    // function that calls setInitialOwner multiple times to assign multiple arts to different addresses with one call\n    /*function cryptoArtReleases(address[] addresses, uint256[] hashes) {\n      if (msg.sender != owner) throw;\n      uint n = hashes.length;\n      for (uint i = 0; i < n; i++) {\n        cryptoArtRelease(addresses[i], hashes[i]);\n      }\n    }*/\n\n\n    //Transfer ownership of an artwork to another user without requiring payment\n    function transferArt(address to, uint artIndex) {\n      if (artIndexToAddress[artIndex] != msg.sender) throw; //if the msg sender does not own the art work being transferred, then Stop\n      if (artIndex >= nextArtIndexToAssign) throw;\n      if (artOfferedForSale[artIndex].isForSale) {\n        ArtNoLongerForSale(artIndex); // If the artwork was listed for sale and now it is transferred, set it to Not For Sale;\n      }\n      artIndexToAddress[artIndex] = to; //Reassign index to new owner\n      balanceOf[msg.sender]--; //reduce total owned by sender\n      balanceOf[to]++;\n      Transfer(msg.sender, to, 1);\n      ArtTransfer(msg.sender, to, artIndex);\n      // Check for the case where there is a bid from the new owner and refund it.\n      // Any other bid can stay in place. Because they can still get it from the new owner. This reduces wasted gas for those who bid. And discourages malicious intent.\n      Bid bid = artBids[artIndex];\n      if (bid.bidder == to) {\n        // Kill bid and refund value\n        pendingWithdrawals[to] += bid.value;\n        artBids[artIndex] = Bid(false, artIndex, 0x0,0);\n      }\n    }\n\n    function artNoLongerForSale(uint artIndex) {\n      if (artIndexToAddress[artIndex] != msg.sender) throw; // if message sender does not own the artwork, they cannot call fxn\n      if (artIndex >= nextArtIndexToAssign) throw; //If the index is above the upper limit of carts created\n      artOfferedForSale[artIndex] = Offer(false, artIndex, msg.sender, 0, 0x0);\n      ArtNoLongerForSale(artIndex);\n    }\n\n    function offerArtForSale(uint artIndex, uint minSalePriceInWei) {\n      if (artIndexToAddress[artIndex] != msg.sender) throw;\n      if (artIndex >= nextArtIndexToAssign) throw;\n      artOfferedForSale[artIndex] = Offer(true, artIndex, msg.sender, minSalePriceInWei,0x0);\n      ArtOffered(artIndex, minSalePriceInWei, 0x0);\n    }\n\n    function offerArtForSaleToAddress(uint artIndex, uint minSalePriceInWei, address toAddress) {\n      if (artIndexToAddress[artIndex] != msg.sender) throw;\n      if (artIndex >= nextArtIndexToAssign) throw;\n      artOfferedForSale[artIndex] = Offer(true, artIndex, msg.sender, minSalePriceInWei, toAddress);\n      ArtOffered(artIndex, minSalePriceInWei, toAddress);\n    }\n\n    function buyArt(uint artIndex) payable {\n      Offer offer = artOfferedForSale[artIndex];\n      if (artIndex >= nextArtIndexToAssign) throw;\n      if (!offer.isForSale) throw; // Art not actually for sale;\n      if (offer.onlySellTo != 0x0 && offer.onlySellTo != msg.sender) throw; // art not supposed to be sold to this user\n      if (msg.value < offer.minValue) throw;  // Didn't send enough ETH;\n      if (offer.seller != artIndexToAddress[artIndex]) throw; // Seller no longer owner of cart\n\n      address seller = offer.seller;\n\n      artIndexToAddress[artIndex] = msg.sender;\n      balanceOf[seller]--;\n      balanceOf[msg.sender]++;\n      Transfer(seller,msg.sender,1);\n\n      artNoLongerForSale(artIndex);\n      pendingWithdrawals[seller] += msg.value;\n      ArtBought(artIndex, msg.value, seller, msg.sender);\n\n      // Check for the case where there is a bid from the new owner and refund it.\n      // Any other bid can stay in place.\n      Bid bid = artBids[artIndex];\n      if (bid.bidder == msg.sender) {\n        // Kill bid and refund value\n        pendingWithdrawals[msg.sender] += bid.value;\n        artBids[artIndex] = Bid(false, artIndex, 0x0, 0);\n      }\n    }\n\n    // Eth gets stored in contract. This is how anyone gets their money out\n    function withdraw() {\n      uint amount = pendingWithdrawals[msg.sender];\n      //Remember to zero the pending refund before sending to prevent re-entrancy attacks\n      pendingWithdrawals[msg.sender] = 0;\n      msg.sender.transfer(amount);\n    }\n\n    function enterBidforArt(uint artIndex) payable {\n      if (artIndex >= nextArtIndexToAssign) throw;\n      if (artIndexToAddress[artIndex] == 0x0) throw;\n      if (artIndexToAddress[artIndex] == msg.sender) throw;\n      if (msg.value == 0) throw;\n      Bid existing = artBids[artIndex];\n      if (existing.value >= msg.value) throw; // If the current bid is equal or higher to the newer bid, then throw\n      if (existing.value > 0) {\n        // Refund the failing bid\n        pendingWithdrawals[existing.bidder] += existing.value;\n      }\n      artBids[artIndex] = Bid(true, artIndex, msg.sender, msg.value);\n      ArtBidEntered(artIndex, msg.value, msg.sender);\n    }\n\n\n    function acceptBidForArt(uint artIndex, uint minPrice) {\n      if (artIndex >= nextArtIndexToAssign) throw;\n      if (artIndexToAddress[artIndex] != msg.sender) throw;\n      address seller = msg.sender;\n      Bid bid = artBids[artIndex];\n      if (bid.value == 0) throw; // throw if owner accepts a bid of zero\n      if (bid.value < minPrice) throw;\n\n      artIndexToAddress[artIndex] = bid.bidder;\n      balanceOf[seller]--;\n      balanceOf[bid.bidder]++;\n      Transfer(seller, bid.bidder, 1);\n\n      artOfferedForSale[artIndex] = Offer(false, artIndex, bid.bidder, 0, 0x0);\n      uint amount = bid.value;\n      artBids[artIndex] = Bid(false, artIndex, 0x0, 0);\n      pendingWithdrawals[seller] += amount;\n      ArtBought(artIndex, bid.value, seller, bid.bidder);\n\n    }\n\n    function withdrawBidForArt(uint artIndex) {\n      if (artIndex >= nextArtIndexToAssign) throw;\n      if (artIndexToAddress[artIndex] == 0x0) throw;\n      Bid bid = artBids[artIndex];\n      if (bid.bidder != msg.sender) throw;\n      ArtBidWithdrawn(artIndex, bid.value, msg.sender);\n      uint amount = bid.value;\n      artBids[artIndex] = Bid(false, artIndex, 0x0, 0);\n        // Refund the bid moeny\n        msg.sender.transfer(amount);\n    }\n\n\n}\n",
  "sourcePath": "/Users/williammoik/Git/pet-shop-tutorial/contracts/CryptoArt.sol",
  "compiler": {
    "name": "solc",
    "version": "0.4.18+commit.9cf6e910.Emscripten.clang"
  },
  "schemaVersion": "1.0.1",
  "updatedAt": "2017-12-04T23:21:03.001Z"
}