{
  "contractName": "owned",
  "abi": [
    {
      "constant": true,
      "inputs": [],
      "name": "owner",
      "outputs": [
        {
          "name": "",
          "type": "address"
        }
      ],
      "payable": false,
      "stateMutability": "view",
      "type": "function"
    },
    {
      "constant": false,
      "inputs": [
        {
          "name": "newOwner",
          "type": "address"
        }
      ],
      "name": "transferOwnership",
      "outputs": [],
      "payable": false,
      "stateMutability": "nonpayable",
      "type": "function"
    },
    {
      "inputs": [],
      "payable": false,
      "stateMutability": "nonpayable",
      "type": "constructor"
    }
  ],
  "bytecode": "0x6060604052341561000f57600080fd5b336000806101000a81548173ffffffffffffffffffffffffffffffffffffffff021916908373ffffffffffffffffffffffffffffffffffffffff1602179055506101ce8061005e6000396000f30060606040526004361061004c576000357c0100000000000000000000000000000000000000000000000000000000900463ffffffff1680638da5cb5b14610051578063f2fde38b146100a6575b600080fd5b341561005c57600080fd5b6100646100df565b604051808273ffffffffffffffffffffffffffffffffffffffff1673ffffffffffffffffffffffffffffffffffffffff16815260200191505060405180910390f35b34156100b157600080fd5b6100dd600480803573ffffffffffffffffffffffffffffffffffffffff16906020019091905050610104565b005b6000809054906101000a900473ffffffffffffffffffffffffffffffffffffffff1681565b6000809054906101000a900473ffffffffffffffffffffffffffffffffffffffff1673ffffffffffffffffffffffffffffffffffffffff163373ffffffffffffffffffffffffffffffffffffffff1614151561015f57600080fd5b806000806101000a81548173ffffffffffffffffffffffffffffffffffffffff021916908373ffffffffffffffffffffffffffffffffffffffff160217905550505600a165627a7a723058206c3cd507657d70debc24deb30cf95032ffa1e1e5404d8e7897c687ac15cbd97f0029",
  "source": "pragma solidity ^0.4.8;\n\ncontract owned {\n    address public owner;\n\n    function owned() {\n        owner = msg.sender;\n    }\n\n    modifier onlyOwner {\n        require(msg.sender == owner);\n        _;\n    }\n\n    function transferOwnership(address newOwner) onlyOwner {\n        owner = newOwner;\n    }\n}\n\ncontract CryptoArt is owned {\n\n    // Test Hash Here\n    // string public imageHash = \"HASH\";\n\n    address Owner;\n\n    string public standard = 'CryptoArt';\n    string public name;\n    string public symbol;\n    uint8 public decimals;\n    uint256 public totalSupply;\n\n    // As each art is created, it is assigned an index\n    uint public nextArtIndexToAssign = 0;\n\n    // The big mapping between an artIndexNumber and someones ethereum address\n    mapping (uint => address) public artIndexToAddress;\n\n    /* This creates an array with all balances */\n    mapping (address => uint256) public balanceOf;\n\n    // This is where each artwork is defined as female or male\n    // mapping (uint => bool) public artIndexToGender;\n\n    struct Offer {\n      bool isForSale;\n      uint artIndex;\n      address seller;\n      uint minValue;    // in ether\n      address onlySellTo;   // specify to sell only to a specific person\n    }\n\n    struct Bid {\n      bool hasBid;\n      uint artIndex;\n      address bidder;\n      uint value;\n    }\n\n    // A record of CART that are offered for sale at a specific minimum value, and perhaps to a specific person\n    mapping (uint => Offer) public artOfferedForSale;\n\n    // A record of the highest art bid\n    mapping (uint => Bid) public artBids;\n\n    mapping (address => uint) public pendingWithdrawals;\n\n    // These are events, events are logged in the blockchain for the world to see.\n    // The \"indexed\" keyword identifies which parameters to remain searchable later\n    //event Assign(address indexed to, uint256 indexed artIndex);\n    event Transfer(address indexed from, address indexed to, uint256 indexed artIndex);\n    event ArtTransfer(address indexed from, address indexed to, uint256 indexed artIndex);\n    event ArtOffered(uint indexed artIndex, uint indexed minValue, address indexed toAddress);\n    event ArtBidEntered(uint indexed artIndex, uint indexed value, address indexed fromAddress);\n    event ArtBidWithdrawn(uint indexed artIndex, uint value, address indexed fromAddress);\n    event ArtBought(uint indexed artIndex, uint value, address indexed fromAddress, address indexed toAddress);\n    event ArtNoLongerForSale(uint indexed artIndex);\n    event ArtCreation(uint256 indexed artIndex, address indexed to, string indexed hashOfArt);\n\n    /* Initialized contract with initial supply token to the creator of the contract */\n    // The payable keyword here defines that this contract can accept ether, otherwise it will be rejected\n    function CryptoArt() payable {\n      address owner = msg.sender;\n      uint256 totalSupply = 0; // Change to the creation of numerous sub coins when a new release of art is conducted\n      name = \"CRYPTOART\";   // Sets the name for display purposes\n      symbol = \"CART\";\n      uint decimals=1;  // No decimals for artwork\n\n    }\n\n    function cryptoArtRelease(address to,string hashOfArt) { // Able to accept vector? //Basic minting // Called once for every new artwork\n      //if (msg.sender != owner) throw; // May need to remove this.\n\n      artIndexToAddress[nextArtIndexToAssign] = to;\n      balanceOf[to]++;\n\n      //Assign(msg.sender, nextArtIndexToAssign);\n      ArtCreation(nextArtIndexToAssign, to, hashOfArt);\n      nextArtIndexToAssign++;\n\n      // Need to check if the hash already exists by checking ArtCreation Event log\n    }\n\n    // function that calls setInitialOwner multiple times to assign multiple arts to different addresses with one call\n    /*function cryptoArtReleases(address[] addresses, uint256[] hashes) {\n      if (msg.sender != owner) throw;\n      uint n = hashes.length;\n      for (uint i = 0; i < n; i++) {\n        cryptoArtRelease(addresses[i], hashes[i]);\n      }\n    }*/\n\n\n    //Transfer ownership of an artwork to another user without requiring payment\n    function transferArt(address to, uint artIndex) {\n      if (artIndexToAddress[artIndex] != msg.sender) throw; //if the msg sender does not own the art work being transferred, then Stop\n      if (artIndex >= nextArtIndexToAssign) throw;\n      if (artOfferedForSale[artIndex].isForSale) {\n        ArtNoLongerForSale(artIndex); // If the artwork was listed for sale and now it is transferred, set it to Not For Sale;\n      }\n      artIndexToAddress[artIndex] = to; //Reassign index to new owner\n      balanceOf[msg.sender]--; //reduce total owned by sender\n      balanceOf[to]++;\n      Transfer(msg.sender, to, 1);\n      ArtTransfer(msg.sender, to, artIndex);\n      // Check for the case where there is a bid from the new owner and refund it.\n      // Any other bid can stay in place. Because they can still get it from the new owner. This reduces wasted gas for those who bid. And discourages malicious intent.\n      Bid bid = artBids[artIndex];\n      if (bid.bidder == to) {\n        // Kill bid and refund value\n        pendingWithdrawals[to] += bid.value;\n        artBids[artIndex] = Bid(false, artIndex, 0x0,0);\n      }\n    }\n\n    function artNoLongerForSale(uint artIndex) {\n      if (artIndexToAddress[artIndex] != msg.sender) throw; // if message sender does not own the artwork, they cannot call fxn\n      if (artIndex >= nextArtIndexToAssign) throw; //If the index is above the upper limit of carts created\n      artOfferedForSale[artIndex] = Offer(false, artIndex, msg.sender, 0, 0x0);\n      ArtNoLongerForSale(artIndex);\n    }\n\n    function offerArtForSale(uint artIndex, uint minSalePriceInWei) {\n      if (artIndexToAddress[artIndex] != msg.sender) throw;\n      if (artIndex >= nextArtIndexToAssign) throw;\n      artOfferedForSale[artIndex] = Offer(true, artIndex, msg.sender, minSalePriceInWei,0x0);\n      ArtOffered(artIndex, minSalePriceInWei, 0x0);\n    }\n\n    function offerArtForSaleToAddress(uint artIndex, uint minSalePriceInWei, address toAddress) {\n      if (artIndexToAddress[artIndex] != msg.sender) throw;\n      if (artIndex >= nextArtIndexToAssign) throw;\n      artOfferedForSale[artIndex] = Offer(true, artIndex, msg.sender, minSalePriceInWei, toAddress);\n      ArtOffered(artIndex, minSalePriceInWei, toAddress);\n    }\n\n    function buyArt(uint artIndex) payable {\n      Offer offer = artOfferedForSale[artIndex];\n      if (artIndex >= nextArtIndexToAssign) throw;\n      if (!offer.isForSale) throw; // Art not actually for sale;\n      if (offer.onlySellTo != 0x0 && offer.onlySellTo != msg.sender) throw; // art not supposed to be sold to this user\n      if (msg.value < offer.minValue) throw;  // Didn't send enough ETH;\n      if (offer.seller != artIndexToAddress[artIndex]) throw; // Seller no longer owner of cart\n\n      address seller = offer.seller;\n\n      artIndexToAddress[artIndex] = msg.sender;\n      balanceOf[seller]--;\n      balanceOf[msg.sender]++;\n      Transfer(seller,msg.sender,1);\n\n      artNoLongerForSale(artIndex);\n      pendingWithdrawals[seller] += msg.value;\n      ArtBought(artIndex, msg.value, seller, msg.sender);\n\n      // Check for the case where there is a bid from the new owner and refund it.\n      // Any other bid can stay in place.\n      Bid bid = artBids[artIndex];\n      if (bid.bidder == msg.sender) {\n        // Kill bid and refund value\n        pendingWithdrawals[msg.sender] += bid.value;\n        artBids[artIndex] = Bid(false, artIndex, 0x0, 0);\n      }\n    }\n\n    // Eth gets stored in contract. This is how anyone gets their money out\n    function withdraw() {\n      uint amount = pendingWithdrawals[msg.sender];\n      //Remember to zero the pending refund before sending to prevent re-entrancy attacks\n      pendingWithdrawals[msg.sender] = 0;\n      msg.sender.transfer(amount);\n    }\n\n    function enterBidforArt(uint artIndex) payable {\n      if (artIndex >= nextArtIndexToAssign) throw;\n      if (artIndexToAddress[artIndex] == 0x0) throw;\n      if (artIndexToAddress[artIndex] == msg.sender) throw;\n      if (msg.value == 0) throw;\n      Bid existing = artBids[artIndex];\n      if (existing.value >= msg.value) throw; // If the current bid is equal or higher to the newer bid, then throw\n      if (existing.value > 0) {\n        // Refund the failing bid\n        pendingWithdrawals[existing.bidder] += existing.value;\n      }\n      artBids[artIndex] = Bid(true, artIndex, msg.sender, msg.value);\n      ArtBidEntered(artIndex, msg.value, msg.sender);\n    }\n\n\n    function acceptBidForArt(uint artIndex, uint minPrice) {\n      if (artIndex >= nextArtIndexToAssign) throw;\n      if (artIndexToAddress[artIndex] != msg.sender) throw;\n      address seller = msg.sender;\n      Bid bid = artBids[artIndex];\n      if (bid.value == 0) throw; // throw if owner accepts a bid of zero\n      if (bid.value < minPrice) throw;\n\n      artIndexToAddress[artIndex] = bid.bidder;\n      balanceOf[seller]--;\n      balanceOf[bid.bidder]++;\n      Transfer(seller, bid.bidder, 1);\n\n      artOfferedForSale[artIndex] = Offer(false, artIndex, bid.bidder, 0, 0x0);\n      uint amount = bid.value;\n      artBids[artIndex] = Bid(false, artIndex, 0x0, 0);\n      pendingWithdrawals[seller] += amount;\n      ArtBought(artIndex, bid.value, seller, bid.bidder);\n\n    }\n\n    function withdrawBidForArt(uint artIndex) {\n      if (artIndex >= nextArtIndexToAssign) throw;\n      if (artIndexToAddress[artIndex] == 0x0) throw;\n      Bid bid = artBids[artIndex];\n      if (bid.bidder != msg.sender) throw;\n      ArtBidWithdrawn(artIndex, bid.value, msg.sender);\n      uint amount = bid.value;\n      artBids[artIndex] = Bid(false, artIndex, 0x0, 0);\n        // Refund the bid moeny\n        msg.sender.transfer(amount);\n    }\n\n\n}\n",
  "sourcePath": "/Users/williammoik/Git/pet-shop-tutorial/contracts/CryptoArt.sol",
  "compiler": {
    "name": "solc",
    "version": "0.4.18+commit.9cf6e910.Emscripten.clang"
  },
  "schemaVersion": "1.0.1",
  "updatedAt": "2017-12-04T23:21:02.983Z"
}